{
  "contractName": "Article",
  "abi": [
    {
      "constant": true,
      "inputs": [],
      "name": "ArticleCount",
      "outputs": [
        {
          "name": "",
          "type": "uint256"
        }
      ],
      "payable": false,
      "stateMutability": "view",
      "type": "function"
    },
    {
      "inputs": [],
      "payable": false,
      "stateMutability": "nonpayable",
      "type": "constructor"
    },
    {
      "anonymous": false,
      "inputs": [
        {
          "indexed": false,
          "name": "sender",
          "type": "address"
        },
        {
          "indexed": false,
          "name": "_originalLocation",
          "type": "string"
        },
        {
          "indexed": false,
          "name": "_title",
          "type": "string"
        }
      ],
      "name": "uploadCheck",
      "type": "event"
    },
    {
      "constant": false,
      "inputs": [
        {
          "name": "_originalLocation",
          "type": "string"
        },
        {
          "name": "_title",
          "type": "string"
        }
      ],
      "name": "uploadArticle",
      "outputs": [
        {
          "name": "",
          "type": "bool"
        }
      ],
      "payable": false,
      "stateMutability": "nonpayable",
      "type": "function"
    },
    {
      "constant": true,
      "inputs": [
        {
          "name": "_originalLocation",
          "type": "string"
        }
      ],
      "name": "getOriginalArticle",
      "outputs": [
        {
          "name": "",
          "type": "string"
        },
        {
          "name": "",
          "type": "address"
        },
        {
          "name": "",
          "type": "string"
        },
        {
          "name": "",
          "type": "uint256"
        },
        {
          "name": "",
          "type": "uint256"
        }
      ],
      "payable": false,
      "stateMutability": "view",
      "type": "function"
    },
    {
      "constant": false,
      "inputs": [
        {
          "name": "_originalLocation",
          "type": "string"
        }
      ],
      "name": "addUpVote",
      "outputs": [
        {
          "name": "",
          "type": "bool"
        }
      ],
      "payable": false,
      "stateMutability": "nonpayable",
      "type": "function"
    },
    {
      "constant": false,
      "inputs": [
        {
          "name": "_originalLocation",
          "type": "string"
        }
      ],
      "name": "addDownVote",
      "outputs": [
        {
          "name": "",
          "type": "bool"
        }
      ],
      "payable": false,
      "stateMutability": "nonpayable",
      "type": "function"
    }
  ],
  "bytecode": "0x608060405234801561001057600080fd5b50600080819055506110c0806100276000396000f30060806040526004361061006d576000357c0100000000000000000000000000000000000000000000000000000000900463ffffffff1680630f87152d146100725780638a3fd05d1461009d578063b0539b6c1461011e578063c68b78481461019f578063d1a727d31461032e575b600080fd5b34801561007e57600080fd5b506100876103f5565b6040518082815260200191505060405180910390f35b3480156100a957600080fd5b50610104600480360381019080803590602001908201803590602001908080601f01602080910402602001604051908101604052809392919081815260200183838082843782019150505050505091929192905050506103fb565b604051808215151515815260200191505060405180910390f35b34801561012a57600080fd5b50610185600480360381019080803590602001908201803590602001908080601f01602080910402602001604051908101604052809392919081815260200183838082843782019150505050505091929192905050506106d8565b604051808215151515815260200191505060405180910390f35b3480156101ab57600080fd5b50610206600480360381019080803590602001908201803590602001908080601f01602080910402602001604051908101604052809392919081815260200183838082843782019150505050505091929192905050506109b5565b60405180806020018673ffffffffffffffffffffffffffffffffffffffff1673ffffffffffffffffffffffffffffffffffffffff16815260200180602001858152602001848152602001838103835288818151815260200191508051906020019080838360005b8381101561028857808201518184015260208101905061026d565b50505050905090810190601f1680156102b55780820380516001836020036101000a031916815260200191505b50838103825286818151815260200191508051906020019080838360005b838110156102ee5780820151818401526020810190506102d3565b50505050905090810190601f16801561031b5780820380516001836020036101000a031916815260200191505b5097505050505050505060405180910390f35b34801561033a57600080fd5b506103db600480360381019080803590602001908201803590602001908080601f0160208091040260200160405190810160405280939291908181526020018383808284378201915050505050509192919290803590602001908201803590602001908080601f0160208091040260200160405190810160405280939291908181526020018383808284378201915050505050509192919290505050610d52565b604051808215151515815260200191505060405180910390f35b60005481565b6000600115156001836040518082805190602001908083835b6020831015156104395780518252602082019150602081019050602083039250610414565b6001836020036101000a038019825116818451168082178552505050505050905001915050908152602001604051809103902060070160003373ffffffffffffffffffffffffffffffffffffffff1673ffffffffffffffffffffffffffffffffffffffff16815260200190815260200160002060009054906101000a900460ff16151514806105845750600115156001836040518082805190602001908083835b6020831015156104ff57805182526020820191506020810190506020830392506104da565b6001836020036101000a038019825116818451168082178552505050505050905001915050908152602001604051809103902060080160003373ffffffffffffffffffffffffffffffffffffffff1673ffffffffffffffffffffffffffffffffffffffff16815260200190815260200160002060009054906101000a900460ff161515145b1561058e57600080fd5b600180836040518082805190602001908083835b6020831015156105c757805182526020820191506020810190506020830392506105a2565b6001836020036101000a038019825116818451168082178552505050505050905001915050908152602001604051809103902060070160003373ffffffffffffffffffffffffffffffffffffffff1673ffffffffffffffffffffffffffffffffffffffff16815260200190815260200160002060006101000a81548160ff0219169083151502179055506001826040518082805190602001908083835b6020831015156106895780518252602082019150602081019050602083039250610664565b6001836020036101000a03801982511681845116808217855250505050505090500191505090815260200160405180910390206005016000815480929190600101919050555060019050919050565b6000600115156001836040518082805190602001908083835b60208310151561071657805182526020820191506020810190506020830392506106f1565b6001836020036101000a038019825116818451168082178552505050505050905001915050908152602001604051809103902060070160003373ffffffffffffffffffffffffffffffffffffffff1673ffffffffffffffffffffffffffffffffffffffff16815260200190815260200160002060009054906101000a900460ff16151514806108615750600115156001836040518082805190602001908083835b6020831015156107dc57805182526020820191506020810190506020830392506107b7565b6001836020036101000a038019825116818451168082178552505050505050905001915050908152602001604051809103902060080160003373ffffffffffffffffffffffffffffffffffffffff1673ffffffffffffffffffffffffffffffffffffffff16815260200190815260200160002060009054906101000a900460ff161515145b1561086b57600080fd5b600180836040518082805190602001908083835b6020831015156108a4578051825260208201915060208101905060208303925061087f565b6001836020036101000a038019825116818451168082178552505050505050905001915050908152602001604051809103902060080160003373ffffffffffffffffffffffffffffffffffffffff1673ffffffffffffffffffffffffffffffffffffffff16815260200190815260200160002060006101000a81548160ff0219169083151502179055506001826040518082805190602001908083835b6020831015156109665780518252602082019150602081019050602083039250610941565b6001836020036101000a03801982511681845116808217855250505050505090500191505090815260200160405180910390206006016000815480929190600101919050555060019050919050565b6060600060606000806001866040518082805190602001908083835b6020831015156109f657805182526020820191506020810190506020830392506109d1565b6001836020036101000a03801982511681845116808217855250505050505090500191505090815260200160405180910390206000016001876040518082805190602001908083835b602083101515610a645780518252602082019150602081019050602083039250610a3f565b6001836020036101000a038019825116818451168082178552505050505050905001915050908152602001604051809103902060010160009054906101000a900473ffffffffffffffffffffffffffffffffffffffff166001886040518082805190602001908083835b602083101515610af35780518252602082019150602081019050602083039250610ace565b6001836020036101000a03801982511681845116808217855250505050505090500191505090815260200160405180910390206002016001896040518082805190602001908083835b602083101515610b615780518252602082019150602081019050602083039250610b3c565b6001836020036101000a03801982511681845116808217855250505050505090500191505090815260200160405180910390206005015460018a6040518082805190602001908083835b602083101515610bd05780518252602082019150602081019050602083039250610bab565b6001836020036101000a038019825116818451168082178552505050505050905001915050908152602001604051809103902060060154848054600181600116156101000203166002900480601f016020809104026020016040519081016040528092919081815260200182805460018160011615610100020316600290048015610c9c5780601f10610c7157610100808354040283529160200191610c9c565b820191906000526020600020905b815481529060010190602001808311610c7f57829003601f168201915b50505050509450828054600181600116156101000203166002900480601f016020809104026020016040519081016040528092919081815260200182805460018160011615610100020316600290048015610d385780601f10610d0d57610100808354040283529160200191610d38565b820191906000526020600020905b815481529060010190602001808311610d1b57829003601f168201915b505050505092509450945094509450945091939590929450565b60007f532604fdb66cac363dfc6684014da9ac37c415914740cfeb473e33d968f55326338484604051808473ffffffffffffffffffffffffffffffffffffffff1673ffffffffffffffffffffffffffffffffffffffff1681526020018060200180602001838103835285818151815260200191508051906020019080838360005b83811015610dee578082015181840152602081019050610dd3565b50505050905090810190601f168015610e1b5780820380516001836020036101000a031916815260200191505b50838103825284818151815260200191508051906020019080838360005b83811015610e54578082015181840152602081019050610e39565b50505050905090810190601f168015610e815780820380516001836020036101000a031916815260200191505b509550505050505060405180910390a160a0604051908101604052808381526020013373ffffffffffffffffffffffffffffffffffffffff1681526020018481526020016000815260200160008152506001846040518082805190602001908083835b602083101515610f095780518252602082019150602081019050602083039250610ee4565b6001836020036101000a03801982511681845116808217855250505050505090500191505090815260200160405180910390206000820151816000019080519060200190610f58929190610fef565b5060208201518160010160006101000a81548173ffffffffffffffffffffffffffffffffffffffff021916908373ffffffffffffffffffffffffffffffffffffffff1602179055506040820151816002019080519060200190610fbc929190610fef565b50606082015181600501556080820151816006015590505060008081548092919060010191905055506001905092915050565b828054600181600116156101000203166002900490600052602060002090601f016020900481019282601f1061103057805160ff191683800117855561105e565b8280016001018555821561105e579182015b8281111561105d578251825591602001919060010190611042565b5b50905061106b919061106f565b5090565b61109191905b8082111561108d576000816000905550600101611075565b5090565b905600a165627a7a72305820cb823ac36d1ca543efe53fe66d7456e1a503b4bbc15611d99a1be3bfae877d510029",
  "source": "pragma solidity ^0.4.11;\r\n\r\n\r\nimport './SafeMath.sol';\r\n\r\n\r\ncontract Article{\r\n\r\n  struct ArticleDetails\r\n  {\r\n    string title;\r\n    address author;\r\n    string originalLocation;\r\n    mapping(string => bool) proposalLocations;\r\n    mapping(address => bool) proposalStakeholders;\r\n    uint upVotesTotal;\r\n    uint downVotesTotal;\r\n    mapping(address => bool) upVotes;\r\n    mapping(address => bool) downVotes;\r\n    \r\n  }\r\n\r\n  uint public ArticleCount;\r\n\r\n  mapping(string => ArticleDetails) Articles;\r\n   \r\n\r\n\r\n//called when first deployed\r\n    constructor() public \r\n    {\r\n        ArticleCount = 0;\r\n       \r\n    }\r\n\r\n  event uploadCheck(address sender, string _originalLocation, string _title);\r\n\r\n  function uploadArticle(string _originalLocation, string _title) public returns (bool)\r\n    {\r\n     \r\n      emit uploadCheck(msg.sender, _originalLocation, _title);\r\n        \r\n      Articles[_originalLocation] =\r\n      ArticleDetails(\r\n            {\r\n                title: _title,\r\n                author: msg.sender, \r\n                originalLocation: _originalLocation,\r\n                upVotesTotal: 0,\r\n                downVotesTotal: 0\r\n            }\r\n        );\r\n        \r\n        ArticleCount++;\r\n        \r\n        return true;\r\n\r\n      }\r\n\r\n    function getOriginalArticle(string _originalLocation) public constant returns(string, address, string, uint, uint)\r\n    {\r\n          return (Articles[_originalLocation].title, Articles[_originalLocation].author, Articles[_originalLocation].originalLocation, Articles[_originalLocation].upVotesTotal, Articles[_originalLocation].downVotesTotal);\r\n    }\r\n        \r\n    function addUpVote(string _originalLocation) public returns (bool)\r\n    {\r\n        if(Articles[_originalLocation].upVotes[msg.sender] == true || Articles[_originalLocation].downVotes[msg.sender] == true)\r\n        {\r\n            revert();\r\n        }\r\n        \r\n        Articles[_originalLocation].upVotes[msg.sender] = true;\r\n        Articles[_originalLocation].upVotesTotal++;\r\n        \r\n        return true;\r\n\r\n    }\r\n    \r\n    function addDownVote(string _originalLocation) public returns (bool)\r\n    {\r\n        if(Articles[_originalLocation].upVotes[msg.sender] == true || Articles[_originalLocation].downVotes[msg.sender] == true)\r\n        {\r\n            revert();\r\n        }\r\n        \r\n        Articles[_originalLocation].downVotes[msg.sender] = true;\r\n        Articles[_originalLocation].downVotesTotal++;\r\n        \r\n        return true;\r\n\r\n    }\r\n\r\n\r\n      //function addAuthoredArticle(address _user, address _authoredArticle) returns(bool){\r\n        //  users[_user].authoredArticles[_authoredArticle] = true;\r\n        //return true;\r\n      //}\r\n\r\n    //   function addReviewedArticle(address _user, address _reviewedArticle) returns(uint){\r\n    //     return users[_user].reviewedArticles.push(_reviewedArticle);\r\n    //   }\r\n\r\n    //   function addCollaboratedArticle(address _user, address _colaboratedArticle) returns(uint){\r\n    //     return users[_user].collaboratedArticles.push(_colaboratedArticle);\r\n    //   }\r\n\r\n\r\n     // function name(address _user) public constant returns(string _name){\r\n       // return users[_user].name;\r\n      //}\r\n\r\n\r\n    //   function getAuthoredArticles(address _user) public constant returns (address[] _authoredArticles){\r\n    //     return users[_user].authoredArticles;\r\n    //   }\r\n\r\n    //   function getReviewedArticles(address _user) public constant returns (address[] _reviewedArticles){\r\n    //     return users[_user].reviewedArticles;\r\n    //   }\r\n\r\n    //   function getCollaboratedArticles(address _user) public constant returns (address[] _collaboratedArticles){\r\n    //     return users[_user].reviewedArticles;\r\n    //   }\r\n\r\n\r\n    //   function indexOf(address[] values, address _x)returns (uint){\r\n    //     for (uint i = 0; i < values.length; i++)\r\n    //     if (values[i] == _x) return i;\r\n    //     return uint(-1);\r\n    //   }\r\n    //   function remove_subscription(address _subscription, address _user)returns(bool){\r\n    //     uint index = indexOf(profiles[_user].subscriptions, _subscription);\r\n    //     if(index == uint(-1))\r\n    //     return false;\r\n    //     delete profiles[_user].subscriptions[index];\r\n    //     return true;\r\n    //   }\r\n    }",
  "sourcePath": "C:\\wamp\\www\\Initial\\contracts\\Article.sol",
  "compiler": {
    "name": "solc",
    "version": "0.4.24+commit.e67f0147.Emscripten.clang"
  },
  "schemaVersion": "2.0.0",
  "updatedAt": "2018-06-20T11:12:45.949Z"
}