{
  "contractName": "User",
  "abi": [
    {
      "constant": true,
      "inputs": [],
      "name": "UserCount",
      "outputs": [
        {
          "name": "",
          "type": "uint256"
        }
      ],
      "payable": false,
      "stateMutability": "view",
      "type": "function"
    },
    {
      "inputs": [],
      "payable": false,
      "stateMutability": "nonpayable",
      "type": "constructor"
    },
    {
      "constant": false,
      "inputs": [
        {
          "name": "_name",
          "type": "string"
        }
      ],
      "name": "registerUser",
      "outputs": [
        {
          "name": "",
          "type": "bool"
        }
      ],
      "payable": false,
      "stateMutability": "nonpayable",
      "type": "function"
    },
    {
      "constant": false,
      "inputs": [
        {
          "name": "_user",
          "type": "address"
        },
        {
          "name": "_authoredArticle",
          "type": "address"
        }
      ],
      "name": "addAuthoredArticle",
      "outputs": [
        {
          "name": "",
          "type": "bool"
        }
      ],
      "payable": false,
      "stateMutability": "nonpayable",
      "type": "function"
    },
    {
      "constant": true,
      "inputs": [
        {
          "name": "_user",
          "type": "address"
        }
      ],
      "name": "name",
      "outputs": [
        {
          "name": "_name",
          "type": "string"
        }
      ],
      "payable": false,
      "stateMutability": "view",
      "type": "function"
    }
  ],
  "bytecode": "0x608060405234801561001057600080fd5b5060008081905550610522806100276000396000f300608060405260043610610062576000357c0100000000000000000000000000000000000000000000000000000000900463ffffffff16806301984892146100675780631593172414610123578063704f1b941461014e578063c4c7f03c146101cf575b600080fd5b34801561007357600080fd5b506100a8600480360381019080803573ffffffffffffffffffffffffffffffffffffffff16906020019092919050505061024a565b6040518080602001828103825283818151815260200191508051906020019080838360005b838110156100e85780820151818401526020810190506100cd565b50505050905090810190601f1680156101155780820380516001836020036101000a031916815260200191505b509250505060405180910390f35b34801561012f57600080fd5b5061013861032e565b6040518082815260200191505060405180910390f35b34801561015a57600080fd5b506101b5600480360381019080803590602001908201803590602001908080601f0160208091040260200160405190810160405280939291908181526020018383808284378201915050505050509192919290505050610334565b604051808215151515815260200191505060405180910390f35b3480156101db57600080fd5b50610230600480360381019080803573ffffffffffffffffffffffffffffffffffffffff169060200190929190803573ffffffffffffffffffffffffffffffffffffffff1690602001909291905050506103ae565b604051808215151515815260200191505060405180910390f35b6060600160008373ffffffffffffffffffffffffffffffffffffffff1673ffffffffffffffffffffffffffffffffffffffff1681526020019081526020016000206000018054600181600116156101000203166002900480601f0160208091040260200160405190810160405280929190818152602001828054600181600116156101000203166002900480156103225780601f106102f757610100808354040283529160200191610322565b820191906000526020600020905b81548152906001019060200180831161030557829003601f168201915b50505050509050919050565b60005481565b600060206040519081016040528083815250600160003373ffffffffffffffffffffffffffffffffffffffff1673ffffffffffffffffffffffffffffffffffffffff16815260200190815260200160002060008201518160000190805190602001906103a1929190610451565b5090505060019050919050565b600060018060008573ffffffffffffffffffffffffffffffffffffffff1673ffffffffffffffffffffffffffffffffffffffff16815260200190815260200160002060010160008473ffffffffffffffffffffffffffffffffffffffff1673ffffffffffffffffffffffffffffffffffffffff16815260200190815260200160002060006101000a81548160ff0219169083151502179055506001905092915050565b828054600181600116156101000203166002900490600052602060002090601f016020900481019282601f1061049257805160ff19168380011785556104c0565b828001600101855582156104c0579182015b828111156104bf5782518255916020019190600101906104a4565b5b5090506104cd91906104d1565b5090565b6104f391905b808211156104ef5760008160009055506001016104d7565b5090565b905600a165627a7a723058203b604066a7f5598124e866fad4a868a51ac9e6d4a190e3191c564df2949bea450029",
  "source": "pragma solidity ^0.4.11;\r\n\r\n\r\nimport './SafeMath.sol';\r\n\r\n\r\ncontract User{\r\n\r\n  struct ProfileDetails\r\n  {\r\n    string name;\r\n    mapping(address => bool) authoredArticles;\r\n    mapping(address => bool) reviewedArticles;\r\n    mapping(address => bool) collaboratedArticles;\r\n  }\r\n\r\n  uint public UserCount;\r\n\r\n  mapping(address => ProfileDetails) users;\r\n\r\n\r\n//called when first deployed\r\n    function User()\r\n    {\r\n        UserCount = 0;\r\n    }\r\n\r\n  function registerUser(string _name) public returns (bool)\r\n    {\r\n      users[msg.sender] =\r\n      ProfileDetails(\r\n            {\r\n            name: _name\r\n            }\r\n        );\r\n        return true;\r\n\r\n      }\r\n\r\n\r\n      function addAuthoredArticle(address _user, address _authoredArticle) returns(bool){\r\n          users[_user].authoredArticles[_authoredArticle] = true;\r\n        return true;\r\n      }\r\n\r\n    //   function addReviewedArticle(address _user, address _reviewedArticle) returns(uint){\r\n    //     return users[_user].reviewedArticles.push(_reviewedArticle);\r\n    //   }\r\n\r\n    //   function addCollaboratedArticle(address _user, address _colaboratedArticle) returns(uint){\r\n    //     return users[_user].collaboratedArticles.push(_colaboratedArticle);\r\n    //   }\r\n\r\n\r\n      function name(address _user) public constant returns(string _name){\r\n        return users[_user].name;\r\n      }\r\n\r\n\r\n    //   function getAuthoredArticles(address _user) public constant returns (address[] _authoredArticles){\r\n    //     return users[_user].authoredArticles;\r\n    //   }\r\n\r\n    //   function getReviewedArticles(address _user) public constant returns (address[] _reviewedArticles){\r\n    //     return users[_user].reviewedArticles;\r\n    //   }\r\n\r\n    //   function getCollaboratedArticles(address _user) public constant returns (address[] _collaboratedArticles){\r\n    //     return users[_user].reviewedArticles;\r\n    //   }\r\n\r\n\r\n    //   function indexOf(address[] values, address _x)returns (uint){\r\n    //     for (uint i = 0; i < values.length; i++)\r\n    //     if (values[i] == _x) return i;\r\n    //     return uint(-1);\r\n    //   }\r\n    //   function remove_subscription(address _subscription, address _user)returns(bool){\r\n    //     uint index = indexOf(profiles[_user].subscriptions, _subscription);\r\n    //     if(index == uint(-1))\r\n    //     return false;\r\n    //     delete profiles[_user].subscriptions[index];\r\n    //     return true;\r\n    //   }\r\n    }",
  "sourcePath": "C:\\wamp\\www\\Initial\\contracts\\User.sol",
  "compiler": {
    "name": "solc",
    "version": "0.4.24+commit.e67f0147.Emscripten.clang"
  },
  "schemaVersion": "2.0.0",
  "updatedAt": "2018-06-20T11:12:45.940Z"
}